:100000000C946D000C9495000C9495000C94950044
:100010000C9495000C9495000C94AE0E0C949500E5
:100020000C9495000C9495000C9495000C949500FC
:100030000C9495000C9495000C9495000C949500EC
:100040000C94B6030C9495000C9426040C940004B4
:100050000C9495000C9495000C9495000C949500CC
:100060000C9495000C9495002A0C2A0C2A0C6A0C0E
:10007000510C640C2A0C2A0C6A0C510C0000000074
:1000800023002600290000000000240027002A0089
:1000900000000000250028002B00040404040404D0
:1000A0000404020202020202030303030303010227
:1000B00004081020408001020408102001020408F6
:1000C00010200000000800020100000304070000E7
:1000D00000000000000056116F0C11241FBECFEF6E
:1000E000D8E0DEBFCDBF11E0A0E0B1E0EEE2FBE280
:1000F00002C005900D92AC38B107D9F723E0ACE807
:10010000B1E001C01D92A130B207E1F710E0CCE6EA
:10011000D0E004C02197FE010E946F15CB36D107B5
:10012000C9F70E9457100C948A150C9400000F9385
:100130001F93CF93DF9300D0CDB7DEB760E08DE0A3
:100140000E947C0683E090E00197F1F761E08DE08A
:100150000E947C068FE090E00197F1F760E08DE06F
:100160000E947C06EAEBF0E06491E6EAF0E0E491BC
:10017000F0E0EE0FFF1FE458FF4F8591949100E4EB
:1001800012E42FE030E0462F0E94E706611571056A
:100190008105910549F0DC01CB010196A11DB11D3E
:1001A000BC01CD019F7003C060E070E0CB012AE389
:1001B00030E040E050E00E9450153A8329834FEF31
:1001C0005FEFBE016F5F7F4F80918E0190918F0135
:1001D0000E94D3128EE191E00E94720589819A817A
:1001E0000E94840586E391E00E9400060F900F9024
:1001F000DF91CF911F910F9108950F931F93CF938C
:10020000DF9300D0CDB7DEB7EDECF0E08491E9EB01
:10021000F0E00491E5EAF0E01491112391F08111EE
:100220000E945306E12FF0E0EE0FFF1FE458FF4F4E
:10023000A591B491EC91E02391E080E021F490E06D
:1002400002C090E080E099838A834FEF5FEFBE01A8
:100250006F5F7F4F80919001909191010E94D31226
:100260008FE391E00E94000689819A810E948405B3
:100270000F900F90DF91CF911F910F9108951D9ACC
:100280000895259A2D9A0895CF93DF9300D0CDB786
:10029000DEB71A8219824FEF5FEFBE016F5F7F4FAB
:1002A00080919001909191010E94830A813099F789
:1002B0008AE391E00E94000689819A810E94840568
:1002C00089819A81019711F464E601C060E087E0BA
:1002D0000E947C0661E086E00E947C0660E085E08A
:1002E0000E947C06D8CFCF93DF9300D0CDB7DEB786
:1002F0001A8219824FEF5FEFBE016F5F7F4F8091CF
:100300008E0190918F010E94830A813099F782E5D6
:1003100091E00E94000689819A810E94840589816A
:100320009A8164E68D3291404CF088E00E947C0610
:1003300061E08AE00E947C0660E008C088E00E94DC
:100340007C0660E08AE00E947C0661E089E00E9411
:100350007C06D0CFCF92DF92EF92FF920F931F9344
:10036000CF93DF9361E087E00E94AB0661E086E017
:100370000E94AB0661E085E00E94AB0661E08AE086
:100380000E94AB0661E089E00E94AB0661E088E074
:100390000E94AB0661E08DE00E94AB0660E08CE05D
:1003A0000E94AB0660E08BE00E94AB06E091270262
:1003B000F091280202E00083E0912302F0912402F0
:1003C0001082E0912502F09126028FEC808310923A
:1003D0002F02E0912B02F0912C0286E08083E091C5
:1003E0002902F0912A02808180618083E0912902B4
:1003F000F0912A02808188608083E0912902F09147
:100400002A02808180688083E0912902F0912A028B
:1004100080818F7D808388EEC82E83E0D82EE12CEA
:10042000F12CC092DB02D092DC02E092DD02F0926D
:10043000DE02CFEFDFEFD093E402C093E302D0936C
:10044000E602C093E50211E01093E7028DEF90E021
:100450009093E9028093E8028FEC92E00E941505E8
:10046000C092C002D092C102E092C202F092C302D6
:10047000D093C902C093C802D093CB02C093CA02E2
:100480001093CC0287E990E09093CE028093CD0246
:1004900084EB92E00E94150581E290E00E94381002
:1004A000EC01009741F04F96998388831B8F0C8F46
:1004B000CE010E949E12D0939101C093900181E2DF
:1004C00090E00E943810EC01009751F04F9699830C
:1004D000888381E08B8F82E08C8FCE010E949E12F8
:1004E000D0938F01C0938E01CD2B59F000E010E026
:1004F00021E040E850E06EE671E083E791E00E9481
:100500008A118091900190919101892B59F000E01E
:1005100010E021E040E850E067E771E084E491E01A
:100520000E948A11DF91CF911F910F91FF90EF9060
:10053000DF90CF900895CF92DF92EF92FF920F93CA
:100540001F93CF93DF936C017A018B01C0E0D0E061
:10055000CE15DF0581F0D8016D918D01D601ED91A9
:10056000FC910190F081E02DC6010995892B11F0D5
:100570002196EECF7E01C701DF91CF911F910F91A0
:10058000FF90EF90DF90CF900895089580E090E085
:100590000895FC01538D448D252F30E0842F90E089
:1005A000821B930B541710F0CF960895019708956E
:1005B000FC01918D828D981761F0828DDF01A80F6B
:1005C000B11D5D968C91928D9F5F9F73928F90E08D
:1005D00008958FEF9FEF0895FC01918D828D9817FC
:1005E00031F0828DE80FF11D858D90E008958FEF39
:1005F0009FEF0895FC01918D228D892F90E0805C02
:100600009F4F821B91098F739927089587E192E08C
:100610000E94FA0221E0892B09F420E0822F08953C
:10062000FC01848DDF01A80FB11DA35ABF4F2C918F
:10063000848D90E001968F739927848FA689B7895E
:100640002C93A089B1898C91837080648C93938D55
:10065000848D981306C00288F389E02D80818F7DF8
:1006600080830895EF92FF920F931F93CF93DF93B0
:10067000EC0181E0888F9B8D8C8D981305C0E889F3
:10068000F989808185FD26C0F62E0B8D10E00F5F65
:100690001F4F0F731127E02E8C8DE8120CC00FB680
:1006A00007FCFACFE889F989808185FFF5CFCE0173
:1006B0000E941003F1CF8B8DFE01E80FF11DE35A6C
:1006C000FF4FF0829FB7F8940B8FEA89FB898081F6
:1006D00080620AC09FB7F894EE89FF896083E88939
:1006E000F98980818370806480839FBF81E090E07E
:1006F000DF91CF911F910F91FF90EF900895CF93CD
:10070000DF93EC01888D8823C9F0EA89FB89808119
:1007100085FD05C0A889B9898C9186FD0FC00FB6EB
:1007200007FCF5CF808185FFF2CFA889B9898C912C
:1007300085FFEDCFCE010E941003E7CFDF91CF916F
:10074000089580E090E0892B29F00E940603811132
:100750000C9400000895DC015996ED91FC915A9794
:10076000309709F0099408950E9475151F920F9211
:100770000FB60F9211242F933F938F939F93AF93B4
:10078000BF938091CB019091CC01A091CD01B0910C
:10079000CE013091C50123E0230F2D3720F40196BF
:1007A000A11DB11D05C026E8230F0296A11DB11D94
:1007B0002093C5018093CB019093CC01A093CD01F0
:1007C000B093CE018091C1019091C201A091C3016B
:1007D000B091C4010196A11DB11D8093C1019093F8
:1007E000C201A093C301B093C401BF91AF919F9187
:1007F0008F913F912F910F900FBE0F901F901895E2
:100800001F920F920FB60F9211242F933F934F9385
:100810005F936F937F938F939F93AF93BF93EF9368
:10082000FF9387E192E00E941003FF91EF91BF9147
:10083000AF919F918F917F916F915F914F913F9178
:100840002F910F900FBE0F901F9018951F920F922F
:100850000FB60F9211242F938F939F93EF93FF93D3
:10086000E0912702F09128028081E0912D02F09121
:100870002E0282FD12C09081809130028F5F8F73B3
:1008800020913102821751F0E0913002F0E0E95EF0
:10089000FD4F958F8093300201C08081FF91EF91D1
:1008A0009F918F912F910F900FBE0F901F901895D1
:1008B0008091A30181110BC01092A2011092A1019D
:1008C0001092A00110929F0181E08093A3018FE913
:1008D00091E00895F8940E9441012FEF81EE94E099
:1008E000215080409040E1F700C000000E943F018D
:1008F0002FEF87EA91E6215080409040E1F700C059
:1009000000000E943F012FEF81EE94E021508040D3
:100910009040E1F700C000000E943F012FEF81EE00
:1009200094E0215080409040E1F700C000000E9418
:100930003F01D3CF0F931F93CF93DF93EC018AE056
:1009400091E0998388831A821B821C821D821E82F9
:100950001F82188619861C861D861E861F86188A89
:10096000198A1A8A1B8A8FEF9FEF9D8B8C8B1A86B0
:100970001B86188E1A8E198E0E9458048C0184E0F2
:1009800090E00E940D14DC0111961C921E921396A9
:10099000DC93CE931297D8011296ED91FC911397A8
:1009A000309739F413969C938E9312978D939C9362
:1009B00005C091838083F80193838283DF91CF9177
:1009C0001F910F910895CF93DF93EC018881998156
:1009D000FC01A0E0B0E0309721F12281338126179D
:1009E0003707D1F4109729F02081318111963C937B
:1009F0002E932A813B81E217F30711F4BB83AA836C
:100A00008E179F0721F48081918199838883CF017C
:100A10000E94A51481E006C0DF010190F081E02D65
:100A2000DACF80E0DF91CF910895FC0183852FB765
:100A30008823D1F1F8948091CB019091CC01A091C1
:100A4000CD01B091CE012FBF26813781821B930B40
:100A50002FB7F8944091CB015091CC016091CD011A
:100A60007091CE012FBF4683578360877187092E0F
:100A7000000CAA0BBB0B4281538164817581480F26
:100A8000591F6A1F7B1F4283538364837583408988
:100A9000518962897389840F951FA61FB71F808BA8
:100AA000918BA28BB38B1AC0F8948091CB0190915B
:100AB000CC01A091CD01B091CE012FBF8283938351
:100AC000A483B58386839783A087B187808B918B1E
:100AD000A28BB38B86899789958B848B81E08287E3
:100AE00013860895009769F0FC0101900020E9F752
:100AF0003197AF01481B590BBC0187E192E00C9480
:100B00009B0280E090E008958F929F92AF92BF92F7
:100B1000CF92DF92EF92FF920F931F93CF93DF93C9
:100B2000CDB7DEB7A1970FB6F894DEBF0FBECDBF2D
:100B30006C01990FEE08FF08F7FE2BC06DE287E10C
:100B400092E00E9432038C0122273327A9012C193D
:100B50003D094E095F0919A2CE0181967C019AE0F8
:100B6000892E912CA12CB12CCA01B901A5019401A7
:100B70000E942E15605DF70162937F0121153105FA
:100B80004105510589F7CF010E947205080F191F11
:100B90001EC0A701960119A28E010F5D1F4F8AE0AA
:100BA000C82ED12CE12CF12CCA01B901A701960164
:100BB0000E942E15605DF80162938F0121153105A9
:100BC0004105510589F7CF010E9472058C0188E823
:100BD00091E00E947205800F911FA1960FB6F894C4
:100BE000DEBF0FBECDBFDF91CF911F910F91FF9060
:100BF000EF90DF90CF90BF90AF909F908F9008952F
:100C0000CF93DF930E947205EC0188E891E00E9487
:100C100072058C0F9D1FDF91CF910895CF93DF93C5
:100C2000FC0182858823E1F12FB7F8948091CB01F4
:100C30009091CC01A091CD01B091CE012FBF8683C0
:100C40009783A087B187208D222351F14089518954
:100C500062897389841B950BA60BB70B4485558558
:100C60006685778584179507A607B707C8F0848936
:100C70009589009719F41286138612C01816190662
:100C80001CF40197958B848BEF01CF010E94AB037D
:100C90008E819F81A885B985888B998BAA8BBB8B08
:100CA000DF91CF910895833081F028F4813099F05D
:100CB0008230A1F008958730A9F08830B9F08430EF
:100CC000D1F4809180008F7D03C0809180008F7768
:100CD00080938000089584B58F7702C084B58F7D9E
:100CE00084BD08958091B0008F7703C08091B000DB
:100CF0008F7D8093B00008951F93CF93DF93282FAB
:100D000030E0F901EE53FF4F8491F901E255FF4FB6
:100D1000D491F901E656FF4FC491CC23C1F0162FB0
:100D200081110E945306EC2FF0E0EE0FFF1FE057F9
:100D3000FF4FA591B4919FB7F894111104C08C9105
:100D4000D095D82302C0EC91DE2BDC939FBFDF91BE
:100D5000CF911F910895CF93DF9390E0FC01E2556E
:100D6000FF4F2491FC01E656FF4F8491882361F1E7
:100D700090E0880F991FFC01EA57FF4FC591D4916D
:100D8000FC01E057FF4FA591B491611109C09FB7D5
:100D9000F8948881209582238883EC912E230BC0C0
:100DA000623061F49FB7F8948881322F30958323A5
:100DB0008883EC912E2B2C939FBF06C08FB7F8949D
:100DC000E8812E2B28838FBFDF91CF910895CF929A
:100DD000DF92EF92FF920F931F93E82FF92F05C038
:100DE000015011092109310961F19081962394176D
:100DF000B9F305C0015011092109310911F19081A0
:100E000096239413F7CFC12CD12CE12CF12C0AC0DE
:100E10008FEFC81AD80AE80AF80A0C151D052E0526
:100E20003F0579F080818623841791F36C2D7D2D09
:100E30008E2D9F2D1F910F91FF90EF90DF90CF90FF
:100E4000089560E070E080E090E01F910F91FF90C6
:100E5000EF90DF90CF900895E091D101F091D20111
:100E60008081811103C08FEF9FEF09C0E091D10114
:100E7000F091D2010580F681E02D808191819093DF
:100E80009E0180939D0108950FB6F8940F92809172
:100E9000C8019091C9010F900FBE08950FB6F89444
:100EA0000F92FC01928D0F900FBE81E0911180E0B6
:100EB0000895FC01738362839187808746175707E3
:100EC00078F0421B530B8485958548175907C8F461
:100ED000BF016E5F7F4F8091990190919A010DC083
:100EE0004217530718F46217730758F4BF016E5F77
:100EF0007F4F80919B0190919C010E94E10F80E0C7
:100F0000089581E00895EF92FF920F931F93CF937E
:100F1000DF93E0919B01F0919C018081882381F116
:100F20000580F681E02D00811181C681D7817E0187
:100F300082E0E80EF11CC7010E94D20EE889F9890F
:100F4000CE0109958A8982FFE4CF8C859D85800F2B
:100F5000911F0817190760F49B838A83D987C88774
:100F6000B70180919B0190919C010E94E10FD1CF2C
:100F7000B801CE010E94DE138111CBCF0E946A041A
:100F80008091990190919A0190939C0180939B018B
:100F9000F0939A01E0939901DF91CF911F910F9106
:100FA000FF90EF900895FF920F931F93CF93DF93DD
:100FB000EC01F62E0091C8011091C9018091140234
:100FC0009091150202960E94D20ECF3F8FEFD80764
:100FD00089F4FF2079F060911402709115026E5F20
:100FE0007F4F83ED91E0DF91CF911F910F91FF90A3
:100FF0000C94B10EC00FD11FE0911402F0911502B4
:10100000D383C2836091140270911502C017D10777
:1010100068F48091CF019091D0016E5F7F4FDF9196
:10102000CF911F910F91FF900C94E10F8091D1010E
:101030009091D2016E5F7F4F0E94E10F80919D01E0
:1010400090919E01C817D90720F4D0939E01C093B8
:101050009D01DF91CF911F910F91FF900895809195
:101060009201882309F10FB6F8940F92E091E10103
:10107000F091E201C681D781CE0102960E94D20E84
:1010800080911602815080931602809192018150C6
:10109000809392010F900FBE8F89988D0E94271028
:1010A000CE010E942710DBCF8091EE01823010F03C
:1010B0000E94F60E8FEC92E00E940E0684EB92E006
:1010C0000E940E060E94A103CACF809113028823BA
:1010D00031F080919801882321F080E0089581E02B
:1010E000089582E00895FC01DB01892B11F40E9430
:1010F0006A041097E1F30FB6F8940F922091C8019B
:101100003091C9018D919C9111978F3F4FEF9407BA
:1011100001F1418152816091CA017081761739F0E5
:101120002417350720F01D921C9281E013C0241B68
:10113000350B28173907B8F7821B930B8D939C93B7
:101140008091CA0180838091C8019091C9019283E6
:10115000818380E00F900FBE08950F931F93CF936C
:10116000DF93DC011596ED91FC911697C681D7812E
:10117000209711F40E946A048E01045F1F4FC8017A
:101180000E94D20E80919801811114C00A50110959
:10119000C8010E94D20E8E8990911202981710F405
:1011A00080931202B9E08B9FC0011124B8018251D3
:1011B0009E4F03C0B80185EE91E00E94B10EE09110
:1011C0001402F09115029E898689891720F481E026
:1011D0008093970101C080E0DF91CF911F910F9123
:1011E0000895CF93DF93EB01009711F40E946A04F6
:1011F0006091140270911502645F7F4F0E94E10FAD
:1012000061E0CE01DF91CF910C94D3077F928F9252
:101210009F92AF92BF92CF92DF92EF92FF920F9385
:101220001F93CF93DF9380919801811102C00E9498
:101230006A040FB6F8940F928091980181508093C0
:10124000980180919801882311F080E004C1809179
:1012500016028823D1F3C0E0D0E029E0F22EEE247C
:10126000E3948091E501882351F1E091EA01F09146
:10127000EB01C681D781CE010C960E94D20E8E0161
:101280000E5F1F4FC8010E94D20E8E8990911202EC
:10129000981710F480931202F89EC0011124B8012F
:1012A00082519E4F0E94B10EE0911402F0911502FE
:1012B0009E8986899817A8F2E0929701D2CFCD2B0C
:1012C00011F00E942C07E0909501F0909601E11436
:1012D000F10409F4B8C089E0A82E77247394CC24D3
:1012E000CA94DC2C80919801811197C0C091C801EB
:1012F000D091C9012196D093C901C093C80120970C
:10130000F1F4E091D101F091D201808181118FCF70
:101310008091D1019091D2012091CF013091D001E3
:101320003093D2012093D1019093D0018093CF01CB
:101330008091CA018F5F8093CA010E942C0780911F
:101340009D0190919E01B12CC817D90708F451C096
:10135000E091D101F091D2018081811105C0D0923C
:101360009E01C0929D0145C0E091D101F091D20152
:101370000580F681E02D06811781D80112968D91A6
:101380009C911397C817D90728F490939E018093D6
:101390009D012FC04801B2E08B0E911CC4010E9438
:1013A000D20EF80184899589892B21F0C8010C9609
:1013B0000E94D20ED80156968C91909112029817E5
:1013C00010F480931202A89EC0011124B40182512E
:1013D0009E4F0E94B10EE0911402F0911502D801C7
:1013E00056969C918689981708F4B2CFBB24B39483
:1013F000AFCFE0911402F0911502E689AE9EF001A4
:101400001124E251FE4F8081823010F0BB24B3944E
:101410008091970181110CC00AC080919501909133
:1014200096010196909396018093950103C0B110A7
:1014300070929701B1E0EB1AF10809F053CF1092C6
:1014400096011092950180919701882309F4FDCEB1
:101450000E94F60E81E00F900FBEDF91CF911F9199
:101460000F91FF90EF90DF90CF90BF90AF909F9043
:101470008F907F900895809198018F5F809398015D
:101480000895EF92FF920F931F93CF93DF93EC0198
:101490000FB6F8940F921E8D7C0181E1E80EF11CCD
:1014A00001E011165CF48989882341F0C7010E948C
:1014B000AD088111009397011150F3CF8FEF8E8FFC
:1014C0000F900FBE0FB6F8940F921D8D7E0188E02D
:1014D000E80EF11C01E011165CF48885882341F0C8
:1014E000C7010E94AD088111009397011150F3CFFD
:1014F0008FEF8D8F0F900FBEDF91CF911F910F91C6
:10150000FF90EF900895AF92BF92CF92DF92FF923B
:101510000F931F93CF93DF9300D000D01F92CDB7CE
:10152000DEB78C016B015D834C83009711F40E9440
:101530006A04672B21F4FC01848D8111F8CF0E948D
:101540006508811104C08C819D81892B81F780E021
:101550005801F1E1AF0EB11C0FB6F8940F92F801EB
:10156000F28CFF2051F1448D4423B1F050E086818C
:101570009781840F951F97838683248135818217F5
:10158000930720F08081918197838683F80166819B
:101590007781C6010E947A15FA94F801F28E80854F
:1015A000882339F0C80108960E94AD0881110E9475
:1015B000F60E0F900FBE81E055C02C813D81232B8C
:1015C00019F40F900FBE4DC0811109C08091CA015E
:1015D00089838091C8019091C9019B838A830F9070
:1015E0000FBE0E943B0A0FB6F8940F92F801858D4A
:1015F0008F3F09F4158EF801868D8F3F09F4168E02
:101600000F900FBEBE016C5F7F4FCE0101960E940E
:10161000730881111CC0C8010E944E07882389F0FD
:101620006C817D81C5010E94F108C8010E94410AB8
:101630000E940609882311F081E08ECF0E94F60EE9
:10164000FBCFC8010E94410A0E940609F5CFC801DC
:101650000E94410A0E940609C8010E944E07882381
:1016600059F380E00F900F900F900F900F90DF9143
:10167000CF911F910F91FF90DF90CF90BF90AF90CF
:101680000895CF93DF9300D000D01F92CDB7DEB77F
:10169000E0919B01F0919C01F080FF2031F00580EA
:1016A000F681E02D0081118102C000E010E00E946F
:1016B0003B0A0E9444076C01809193019091940130
:1016C000C816D90620F40E94830781E001C080E09B
:1016D000D0929401C092930181117DC0FF20C1F18D
:1016E000C016D106E8F10E940609E0919B01F09135
:1016F0009C010580F681E02DE680F780C701029607
:101700000E94D20ED70152968C91529782FF15C03B
:101710001C966D917C911D97600F711F9801A60119
:10172000C7010E945907882359F0B801C7010E94D8
:10173000DE13811105C00E946A048E7FF701828B3F
:10174000D7015096ED91FC915197C701099549C079
:10175000E0919901F0919A018081BB24B3948111A9
:10176000B12CE090C601F090C7010FB6F8940F922B
:10177000F701858D8F3F09F4158ED7015E968C9108
:101780005E978F3F11F45E961C920F900FBEF7018B
:10179000828D811116C0C701419669F260911402D1
:1017A00070911502645F7F4F0E94B10EB11004C0AA
:1017B000C8018C199D0902C08FEF9FEF6B2D0E940D
:1017C000D307C7010E94410A0E940609811109C07E
:1017D0000E94F60E06C00E94060903C0898187FF99
:1017E0000EC040E050E0BE016F5F7F4F8091C601A8
:1017F0009091C7010E94830A8111F0CF49CF0C81DB
:101800001D81D8011A968D919C911B97892B21F0EF
:10181000C80102960E94D20E0E9444077C0180916A
:10182000930190919401E816F90610F40E94830741
:10183000F0929401E0929301E9810E2E000CFF0BCF
:10184000EA30F10570F6EC5CFF4FD80152968C91AE
:101850000C946F158160F801828B2A813B8164852D
:101860007585620F731FA701C8010E94590788235D
:1018700009F4B7CFD8015096ED91FC915197C8016A
:101880000995F801828982FFACCF6A817B818485CA
:101890009585680F791FC8010E94DE138111A1CFC1
:1018A0004ACF8160F801828B6A817B81758764876A
:1018B0006115710509F43FCF6E0D7F1D9701A701DA
:1018C000C8010E9459078DCF81FD04C0C8010E9444
:1018D000271087CF8E7FD80152968C9382CFCF93DB
:1018E000DF93CAE0D1E0D093B502C093B4020E9466
:1018F000580464EB72E00E94E304D093D002C093DA
:10190000CF020E9458046FEC72E0DF91CF910C94EB
:10191000E3040F920FB6F8940F921F9211242F92A6
:101920003F924F925F926F927F928F929F92AF926F
:10193000BF92CF92DF92EF92FF920F931F932F935C
:101940003F934F935F936F937F938F939F93AF9347
:10195000BF93CF93DF93EF93FF93A0911402B091C5
:1019600015020DB60D920EB60D9213BE8091980120
:10197000811128C18091C8019091C901019690936D
:10198000C9018093C801009709F063C0E091D101BB
:10199000F091D2012081222361F1F894259A2D9AA9
:1019A0002FEF61EE74E0215060407040E1F700C01D
:1019B00000001D9A8FEF97EAA1E681509040A04069
:1019C000E1F700C000001D9ABFEFC1EED4E0B150B6
:1019D000C040D040E1F700C000001D9A2FEF61EE3B
:1019E00074E0215060407040E1F700C000001D9A93
:1019F000D7CF2091D1013091D2014091CF015091A8
:101A0000D0015093D2014093D1013093D001209363
:101A1000CF012091CA012F5F2093CA01E091D1012B
:101A2000F091D2012081211107C02FEF3FEF3093B9
:101A30009E0120939D010DC0E091D101F091D20152
:101A40000580F681E02D2081318130939E01209325
:101A50009D0120919D0130919E018217930708F40A
:101A60009CC020E019E0E091D101F091D2013081D9
:101A7000311107C08FEF9FEF90939E0180939D01DE
:101A80008DC0E091D101F091D2010580F681E02D69
:101A90000680F781E02D428153818417950728F451
:101AA00050939E0140939D0179C0AF014E5F5F4FFF
:101AB000A285B38564817581E680F780EB01FD82A4
:101AC000EC82C681D7817B836A8311966D917C916C
:101AD00012974617570721F41296DC93CE9311976D
:101AE000138612863C9131503C933C91A489B58970
:101AF0001097F9F066857785E088F188EB01FD8223
:101B0000EC82C089D1897B836A831196ED90FC9029
:101B10001297BF01645F7F4FE616F70621F4129615
:101B2000DC93CE931197158A148A3C9131503C93E3
:101B30003C91A689309112023A1710F4A093120238
:101B40001A9FD0011124BD0162517E4F7B01DB0140
:101B50001196CD91DC911297D583C4836C817D81E0
:101B6000778366836C817D81DB0113965C934E9352
:101B700012975D834C83F386E286E70138813F5FED
:101B80003883A0911402B0911502468956963C9173
:101B9000431708F468CF21E066CF20E0E0911402FB
:101BA000F0911502E689D9E0ED9FF0011124E25190
:101BB000FE4F8081823008F021E0809197018111F1
:101BC0000EC00AC080919501909196010196909364
:101BD00096018093950197C0222309F494C08091C7
:101BE0009801882321F081E0809397018CC01092A6
:101BF0009701A0911402B0911502E0911402F091A6
:101C000015022D913C918789908D82179307A8F03A
:101C10008091140290911502809114029091150206
:101C2000259A2D9A2FEF67EA71E6215060407040A7
:101C3000E1F700C000001D9AF5CF8091120269E023
:101C40002FC081112CC0F894259A2D9A8FEF91EE18
:101C5000A4E081509040A040E1F700C000001D9A30
:101C6000BFEFC7EAD1E6B150C040D040E1F700C0B5
:101C700000001D9A2FEF61EE74E02150604070402B
:101C8000E1F700C000001D9A8FEF91EEA4E08150B3
:101C90009040A040E1F700C000001D9AD7CF8150CE
:101CA000482F50E0649F9001659F300D1124F90189
:101CB000E251FE4F9081992321F2A181B2811296C7
:101CC0000D90BC91A02DB283A1832F503E4FA2173F
:101CD000B30731F412962D913C91139732832183EF
:101CE00099E0949FF001959FF00D1124E251FE4F71
:101CF0000180F281E02D26813781309315022093F7
:101D0000140280931202A0911402B0911502CD9199
:101D1000CDBFDD91DEBFFF91EF91DF91CF91BF91FC
:101D2000AF919F918F917F916F915F914F913F9173
:101D30002F911F910F91FF90EF90DF90CF90BF9068
:101D4000AF909F908F907F906F905F904F903F905B
:101D50002F901F900F900FBE0F9008950E94890C36
:101D60001895CF93DF939C01FB01DC011196CD9177
:101D7000DC911297D383C2838C819D819583848368
:101D80008C819D81DC0113967C936E9312977D83E9
:101D90006C8331872087F90180818F5F8083DF9199
:101DA000CF910895CF93DF93FC01A085B185828107
:101DB000938124813581EC013D832C83C481D581BD
:101DC0009B838A8311968D919C911297E817F9074E
:101DD00021F41296DC93CE931197118610868C9184
:101DE00081508C938C91DF91CF9108950F920FB613
:101DF000F8940F921F9211242F923F924F925F926C
:101E00006F927F928F929F92AF92BF92CF92DF920A
:101E1000EF92FF920F931F932F933F934F935F93F4
:101E20006F937F938F939F93AF93BF93CF93DF93E2
:101E3000EF93FF93A0911402B09115020DB60D928D
:101E40000EB60D9280919801882321F081E0809355
:101E500097018CC010929701A0911402B0911502C5
:101E6000E0911402F09115022D913C918789908D9B
:101E700082179307A8F08091140290911502809127
:101E8000140290911502259A2D9A2FEF87EA91E678
:101E9000215080409040E1F700C000001D9AF5CF2E
:101EA0008091120269E02FC081112CC0F894259A0C
:101EB0002D9A2FEF81EE94E0215080409040E1F781
:101EC00000C000001D9A2FEF87EA91E62150804064
:101ED0009040E1F700C000001D9A2FEF81EE94E0E2
:101EE000215080409040E1F700C000001D9A2FEF84
:101EF00081EE94E0215080409040E1F700C0000066
:101F00001D9AD7CF8150482F50E0649F9001659F64
:101F1000300D1124F901E251FE4F9081992321F2F5
:101F2000A181B28112960D90BC91A02DB283A183A4
:101F30002F503E4FA217B30731F412962D913C91CA
:101F400013973283218399E0949FF001959FF00DC0
:101F50001124E251FE4F0180F281E02D268137816C
:101F6000309315022093140280931202A091140260
:101F7000B0911502CD91CDBFDD91DEBFFF91EF9104
:101F8000DF91CF91BF91AF919F918F917F916F9191
:101F90005F914F913F912F911F910F91FF90EF9083
:101FA000DF90CF90BF90AF909F908F907F906F9079
:101FB0005F904F903F902F901F900F900FBE0F900B
:101FC00008950F931F93CF93DF938C01FB018081C2
:101FD00091818F3F2FEF920721F4E801AF81B885FF
:101FE0000EC0D801139612962D913C911397E901DA
:101FF000488159818417950710F0D901F4CF1296C2
:102000008D919C91139793838283EC01FD83EC83E4
:10201000B583A4831396FC93EE93129711870087E0
:10202000F80180818F5F8083DF91CF911F910F91A5
:102030000895FC010396928381832FEF3FEF348351
:102040002383968385839087878310820895CF9317
:10205000DF93009751F0EC010E943B0ACE010E94F1
:10206000A514DF91CF910C940609DF91CF910895CB
:10207000CF93DF93EC010E943B0ACE010E940D1426
:10208000EC010E940609209771F40E9441012FEF94
:1020900080E792E0215080409040E1F700C00000CE
:1020A0000E943F01F4CFCE01DF91CF910895789443
:1020B00084B5826084BD84B5816084BD85B582604D
:1020C00085BD85B5816085BD80916E0081608093FE
:1020D0006E00109281008091810082608093810067
:1020E0008091810081608093810080918000816077
:1020F000809380008091B10084608093B1008091D2
:10210000B00081608093B00080917A0084608093F9
:102110007A0080917A00826080937A0080917A00C0
:10212000816080937A0080917A00806880937A0041
:102130001092C10020910401309105018FEF98E0C9
:10214000821B930B90930101809300010E94AA01CE
:102150000FEB11E020E040EC50E06BE771E08FE224
:1021600098E00E948A11813009F090C00FB6F8946F
:102170000F928091C6019091C701892B49F584EB9C
:1021800091E00E9419108BEA91E00E94191084EBF3
:1021900091E090939C0180939B018BEA91E0909356
:1021A0009A018093990181E590E00E943810EC013A
:1021B000009751F04F96998388838AE08B8F85E052
:1021C0008C8FCE010E949E12D093C701C093C6018E
:1021D0000F900FBE8091C6019091C701892B69F0C5
:1021E0000DEB11E023E045E550E060E871E081E4AB
:1021F0009BE00E948A11811102C00E946A04813012
:1022000009F044C0F8942FEF3FEF30939E012093E4
:102210009D01809313021092C9011092C801A895E4
:1022200090EC88E10FB6F894A895809360000FBEFB
:1022300090936000A0911402B0911502CD91CDBF92
:10224000DD91DEBFFF91EF91DF91CF91BF91AF9113
:102250009F918F917F916F915F914F913F912F91BE
:102260001F910F91FF90EF90DF90CF90BF90AF90B4
:102270009F908F907F906F905F904F903F902F90A6
:102280001F900F900FBE0F90089503C08F3F09F469
:10229000B4CF0E94AA018FEC92E00E940E0684EB5C
:1022A00092E00E940E060E94A103F5CFE7E1F2E062
:1022B0001382128288EE93E0A0E0B0E084839583DD
:1022C000A683B78380E191E09183808385EC90E0E1
:1022D0009587848784EC90E09787868780EC90E0F0
:1022E000918B808B81EC90E0938B828B82EC90E0E1
:1022F000958B848B86EC90E0978B868B118E128E5B
:10230000138E148E8FEC92E00E949A0484EB92E07C
:102310000C949A047F928F929F92AF92BF92CF9229
:10232000DF92EF92FF920F931F93CF93DF93782E5C
:10233000A92E6B017A01B22ECA010E9438104C01FD
:10234000892B09F4ECC088E290E00E943810EC017F
:10235000892BC1F0988E8F8AA70165EA70E0C401CD
:102360000E94831521E0E21AF108EF89F88DEE0D45
:10237000FF1DC114D104D1F0CE0149969601285F0A
:102380003F4F07C0C4010E942710C9C0C216D30620
:1023900059F0A601D6016D916D01DC016D93CD015F
:1023A000DA014C914111F2CF18A201C0198E8B2D88
:1023B000843008F083E08E8B89A31AA21B861A86CC
:1023C0001D8A1C8AD987C88724E030E0A901481BF0
:1023D00051095D874C87DB8BCA8B84E09E012D5DA4
:1023E0003F4FD9011D928A95E9F71FA27082DF0144
:1023F0001197AC9211971C92119780E88C931197CA
:102400001C9257971C9211971C92B397F983E883FB
:102410000115110519F0F801D183C0830FB6F894A6
:102420000F92809116028F5F8093160280911402A2
:1024300090911502892BD1F5D0931502C093140207
:1024400080911602813009F041C08EEE91E00E9429
:10245000191087EF91E00E94191080E092E00E942D
:10246000191089E092E00E94191083EF92E00E9417
:1024700019108AEE92E00E94191085EE91E00E94F8
:1024800019108CED91E00E94191083ED91E00E94EB
:10249000191083EF92E09093D2018093D1018AEEDC
:1024A00092E09093D0018093CF0110C080911302ED
:1024B00081110CC0E0911402F091150296898E8969
:1024C000891720F0D0931502C09314028091FC026A
:1024D0008F5F8093FC028E8990911202981710F4FE
:1024E00080931202F9E08F9FC0011124BE016E5F3C
:1024F0007F4F82519E4F0E94B10E0F900FBE809170
:102500001302882351F0E0911402F091150296898C
:102510008E89981710F40E94F60E81E001C08FEFAB
:10252000DF91CF911F910F91FF90EF90DF90CF90AF
:10253000BF90AF909F908F907F900895CF93DF933F
:10254000EC01892B11F40E946A040FB6F8940F92E3
:10255000488159818B8D6C8D9A01869F200D311D8C
:1025600011243D832C831A8E5B834A8390E001976C
:10257000689F9001699F300D1124CA01820F931F3B
:102580009F838E838FEF8D8F8E8FCE0108960E9452
:102590001910CE0141960E9419100F900FBE81E0D4
:1025A000DF91CF910895AF92BF92DF92EF92FF92A9
:1025B0000F931F93CF93DF9300D000D01F92CDB71E
:1025C000DEB78C017B015D834C83009711F40E9480
:1025D0006A04672B21F4FC01848D8111F8CF0E94DD
:1025E0006508811104C08C819D81892B81F780E071
:1025F0005801F8E0AF0EB11C0FB6F8940F92F80135
:10260000228D938D291708F075C0D28C448D41110D
:1026100047C080819181892B09F05AC0F8018481DB
:102620009581009711F480E037C0E0901402F0909B
:102630001502E816F90659F6F70182A1882339F246
:10264000815082A3268991A1291769F38111EBCFCB
:102650005701F2E0AF0EB11CC5010E94D20EF70186
:1026600081A1868B482F50E024E030E0241B350BFD
:102670003587248790911202981710F480931202E4
:1026800029E0249FC001259F900D1124B50182519E
:102690009E4F0E94B10E81E0F8011582148219C08C
:1026A00050E0B701F801828193810E947A15F80108
:1026B000248D82819381820F911D93838283248153
:1026C00035818217930720F08081918193838283E3
:1026D00080E0D394F801D28E9189992321F0C8012A
:1026E00041960E94AD0881110E94F60E0F900FBE18
:1026F00081E055C02C813D81232B19F40F900FBE32
:102700004DC0811109C08091CA0189838091C8019F
:102710009091C9019B838A830F900FBE0E943B0A50
:102720000FB6F8940F92F801858D8F3F09F4158E3E
:10273000F801868D8F3F09F4168E0F900FBEBE01F3
:102740006C5F7F4FCE0101960E947308811121C0FA
:102750000FB6F8940F92F801928D838D0F900FBEF3
:10276000981311C06C817D81C5010E94F108C801D8
:102770000E94410A0E940609882311F081E03CCFA3
:102780000E94F60EFBCFC8010E94410A0E94060972
:10279000F5CFC8010E94410A0E94060980E00F900F
:1027A0000F900F900F900F90DF91CF911F910F918D
:1027B000FF90EF90DF90BF90AF9008950F931F931D
:1027C000CF93DF9300D000D01F92CDB7DEB7009734
:1027D00011F40E946A040091C6011091C70101150D
:1027E000110581F019827B836A839D838C830E940B
:1027F000650840E050E0BE016F5F7F4FC8010E9456
:10280000D31201C080E00F900F900F900F900F90A7
:10281000DF91CF911F910F9108950F931F93CF9345
:10282000DF938230910510F482E090E0E091FF02A6
:10283000F091000320E030E0A0E0B0E0309719F123
:10284000408151810281138148175907C8F08417CC
:10285000950769F4109731F012960C93129713961E
:102860001C9327C00093FF021093000322C0211580
:10287000310519F04217530718F49A01BD01EF0111
:10288000DF01F801DBCF21153105F9F0281B390BE9
:102890002430310580F48A819B816115710521F016
:1028A000FB019383828304C0909300038093FF0213
:1028B000FE01329644C0FE01E20FF31F8193919313
:1028C00022503109398328833AC02091FD0230918A
:1028D000FE02232B41F42091020130910301309339
:1028E000FE022093FD02209100013091010121158B
:1028F000310541F42DB73EB74091040150910501D7
:10290000241B350BE091FD02F091FE02E217F30764
:10291000A0F42E1B3F0B2817390778F0AC014E5F4F
:102920005F4F2417350748F04E0F5F1F5093FE028C
:102930004093FD028193919302C0E0E0F0E0CF016B
:10294000DF91CF911F910F910895CF93DF9300975F
:1029500009F481C0FC01329713821282A091FF0218
:10296000B0910003109781F420813181820F931F71
:102970002091FD023091FE022817390751F5F0939E
:10298000FE02E093FD0267C0ED0120E030E0CE17CB
:10299000DF0740F44A815B819E0141155105F1F04A
:1029A000EA01F5CFD383C28340815181840F951F03
:1029B000C817D90759F488819981840F951F029609
:1029C000918380838A819B81938382832115310542
:1029D00029F4F0930003E093FF023DC0E901FB837B
:1029E000EA8349915991C40FD51FEC17FD0761F493
:1029F00080819181840F951F0296E90199838883D4
:102A0000828193819B838A83E0E0F0E012968D912E
:102A10009C911397009719F0FD01DC01F7CF8D9180
:102A20009C9111979D012E5F3F4F820F931F209124
:102A3000FD023091FE022817390769F4309729F416
:102A4000109200031092FF0202C013821282B09310
:102A5000FE02A093FD02DF91CF910895A1E21A2E0C
:102A6000AA1BBB1BFD010DC0AA1FBB1FEE1FFF1F32
:102A7000A217B307E407F50720F0A21BB30BE40B82
:102A8000F50B661F771F881F991F1A9469F76095C9
:102A90007095809590959B01AC01BD01CF01089583
:102AA000052E97FB1EF400940E94671557FD07D072
:102AB0000E942E1507FC03D04EF40C946715509518
:102AC0004095309521953F4F4F4F5F4F089590951A
:102AD0008095709561957F4F8F4F9F4F0895EE0FB2
:102AE000FF1F0590F491E02D099481E090E0F894A7
:102AF0000C948A15FB01DC0102C001900D9241503B
:102B00005040D8F70895DC0101C06D93415050400A
:102B1000E0F7089510E0CCE6D0E004C0FE010E948A
:0E2B20006F152196CD36D107C9F7F894FFCF77
:102B2E0000000103200000000000AB0300000000C5
:102B3E0032039B02C9027F03FA02D802EC024469F7
:102B4E007374616E63652053656E736F7220566188
:102B5E006C75653A200020636D005461736B2047DD
:102B6E0061732053656E736F722056616C75653A92
:102B7E0020005461736B2044697374616E63652029
:102B8E0051756575652056616C75653A200044690E
:102B9E007374616E6365004761730049444C450070
:0C2BAE00546D7220537663000D0A000085
:00000001FF
