:1000000034C0000057C0000055C0000053C00000BD
:1000100051C000004FC000004DC000004BC00000A8
:1000200049C0000047C0000045C0000043C00000B8
:1000300041C000007DC000003DC000003BC000008A
:1000400018C1000037C00000C3C20000F3C20000A6
:1000500031C000002FC000002DC000002BC00000E8
:1000600029C0000027C000003F0311241FBECFEFAE
:10007000D8E0DEBFCDBF11E0A0E0B1E0E6E8F7E0F8
:1000800002C005900D92A431B107D9F721E0A4E197
:10009000B1E001C01D92A93CB207E1F710E0C5E351
:1000A000D0E003C02197FE0166D3C433D107D1F756
:1000B000AAD067C3A5CF8091BE01811107C081E09E
:1000C0008093BE0183E08093BF011FC08091BF0178
:1000D000823091F08330A9F08130C1F49091C40155
:1000E0008091C6019813EECF1092C2018091C50194
:1000F0008093C30184E0E7CF8091C4018111F4CFE4
:10010000E1CF8091C4018130F1F2089581E08093C4
:10011000C20182E0D8CF0895089540E855E260E03A
:1001200070E090E080E000C026E081E291E0F0C164
:100130001F920F920FB60F9211242F933F934F935C
:100140005F936F937F938F939F93AF93BF93EF933F
:10015000FF938CED9BE090938500809384008091C9
:1001600014018F5F80931401853019F410921401EB
:1001700032D0FF91EF91BF91AF919F918F917F917D
:100180006F915F914F913F912F910F900FBE0F9004
:100190001F9018958CED9BE09093850080938400D0
:1001A000AFE6B0E08C918E7F8C93E0E8F0E0808148
:1001B0008C7F8083E1E8F0E08081877E808380818E
:1001C0008560808380818D7F80838C9181608C931A
:1001D000089581E008958091150191E0980F909322
:1001E0001501882349F021E030E030931701209376
:1001F000160180931501089578945DDFF89480913D
:1002000015018150F6CFCF93DF931092C801109261
:10021000C70179D082DFC0910001D091010119821C
:10022000188279DFB7DF81E028813981232B09F03B
:1002300080E08093C701789478948091C701811100
:1002400007C06ADFF89490E080E0DF91CF910895D5
:1002500081E028813981232B09F480E08093C80153
:100260009091C80181E0911180E08093C701B1DFD6
:10027000E4CF1F920F920FB60F9211242F933F934A
:100280008F939F93AF93BF938091190190911A011F
:10029000A0911B01B0911C013091180123E0230FA4
:1002A0002D3758F50196A11DB11D2093180180939B
:1002B000190190931A01A0931B01B0931C01809126
:1002C0001D0190911E01A0911F01B0912001019686
:1002D000A11DB11D80931D0190931E01A0931F01CC
:1002E000B0932001BF91AF919F918F913F912F913A
:1002F0000F900FBE0F901F90189526E8230F0296BF
:10030000A11DB11DD2CF789484B5826084BD84B51F
:10031000816084BD85B5826085BD85B5816085BD00
:10032000EEE6F0E0808181608083E1E8F0E0108219
:10033000808182608083808181608083E0E8F0E05A
:10034000808181608083E1EBF0E080818460808344
:10035000E0EBF0E0808181608083EAE7F0E080817B
:1003600084608083808182608083808181608083DB
:100370008081806880831092C1000895FC01918D76
:10038000228D892F90E0805C9F4F821B91098F7393
:1003900099270895FC01918D828D981731F0828DF7
:1003A000E80FF11D858D90E008958FEF9FEF089580
:1003B000FC01918D828D981761F0A28DAE0FBF2F39
:1003C000B11D5D968C91928D9F5F9F73928F90E08F
:1003D00008958FEF9FEF0895FC01538D448D252FD5
:1003E00030E0842F90E0821B930B541710F0CF96CF
:1003F000089501970895FC01A48DA80FB92FB11D90
:10040000A35ABF4F2C91848D90E001968F7399274A
:10041000848FA689B7892C93A089B1898C91837028
:1004200080648C93938D848D981306C00288F38921
:10043000E02D80818F7D80830895CF93DF93EC0141
:10044000888D8823B1F0AA89BB89E889F9898C91C4
:1004500085FD03C0808186FD0CC00FB607FCF7CF79
:100460008C9185FFF2CF808185FFEDCFCE01C3DF78
:10047000EACFDF91CF910895EF92FF920F931F93F0
:10048000CF93DF93EC0181E0888F9B8D8C8D981347
:100490001AC0E889F989808185FF15C09FB7F89453
:1004A000EE89FF896083E889F9898081837080649F
:1004B00080839FBF81E090E0DF91CF911F910F91EA
:1004C000FF90EF900895F62E0B8D10E00F5F1F4FF9
:1004D0000F731127E02E8C8D8E110BC00FB607FC09
:1004E000FACFE889F989808185FFF5CFCE0183DFD6
:1004F000F2CFEB8DEC0FFD2FF11DE35AFF4FF08291
:100500009FB7F8940B8FEA89FB8980818062D0CFF6
:10051000CF92DF92EF92FF921F93CF93DF93EC0184
:100520006A017B01122FE889F98982E08083C11476
:1005300081EED806E104F10499F060E079E08DE302
:1005400090E0A7019601F5D02150310941095109E8
:100550005695479537952795211580E1380790F0F6
:10056000E889F989108260E874E88EE190E0A701DB
:100570009601DFD02150310941095109569547951F
:1005800037952795EC85FD853083EE85FF852083A3
:10059000188EEC89FD891083EA89FB89808180614E
:1005A0008083EA89FB89808188608083EA89FB896E
:1005B000808180688083EA89FB8980818F7D808348
:1005C000DF91CF911F91FF90EF90DF90CF90089532
:1005D0001F920F920FB60F9211242F938F939F9318
:1005E000EF93FF93E0913101F09132018081E0912E
:1005F0003701F091380182FD1BC0908180913A0152
:100600008F5F8F7320913B01821741F0E0913A0197
:10061000F0E0EF5DFE4F958F80933A01FF91EF91EF
:100620009F918F912F910F900FBE0F901F90189553
:100630008081F4CF1F920F920FB60F9211242F9347
:100640003F934F935F936F937F938F939F93AF935A
:10065000BF93EF93FF9381E291E0CDDEFF91EF91A5
:10066000BF91AF919F918F917F916F915F914F91CA
:100670003F912F910F900FBE0F901F901895E1E2C0
:10068000F1E01382128288EE93E0A0E0B0E0848370
:100690009583A683B78386E091E09183808385EC80
:1006A00090E09587848784EC90E09787868780EC3C
:1006B00090E0918B808B81EC90E0938B828B82EC2D
:1006C00090E0958B848B86EC90E0978B868B118ED7
:1006D000128E138E148E0895AF92BF92CF92DF9236
:1006E000EF92FF920F931F93CF93DF936C017B01E7
:1006F0008B01040F151FEB015E01AE18BF08C01778
:10070000D10759F06991D601ED91FC910190F081EA
:10071000E02DC6010995892B79F7C501DF91CF91AD
:100720001F910F91FF90EF90DF90CF90BF90AF900F
:100730000895A1E21A2EAA1BBB1BFD010DC0AA1F22
:10074000BB1FEE1FFF1FA217B307E407F50720F03A
:10075000A21BB30BE40BF50B661F771F881F991FB5
:100760001A9469F760957095809590959B01AC01FE
:10077000BD01CF010895EE0FFF1F0590F491E02D0C
:060780000994F894FFCF7C
:10078600C001000000003C026C03EC011D02BE012A
:04079600D801CA01BB
:00000001FF
